:1000000000280020ED0200000000000000000000B9
:1000100000000000000000000000000000000000E0
:1000200000000000000000000000000000000000D0
:10003000000000000000000000000000B50100000A
:10004000E1010000FD010000B9010000CD01000048
:1000500000000000002934D00123002210B488429F
:100060002CD301242407A14204D2814202D20901E7
:100070001B01F8E7E400A14204D2814202D2490008
:100080005B00F8E7884201D3401A1A434C08A042AB
:1000900002D3001B5C0822438C08A04202D3001B41
:1000A0009C082243CC08A04202D3001BDC08224358
:1000B000002803D01B0901D00909E3E7101C10BC7C
:1000C0007047002801D00020C04307B4024802A1B5
:1000D0004018029003BDC046D90000000029F0D0AE
:1000E00003B5FFF7B9FF0EBC4243891A1847C04653
:1000F000002941D010B4041C4C40A4460123002226
:10010000002900D54942002800D5404288422CD31E
:1001100001242407A14204D2814202D209011B0119
:10012000F8E7E400A14204D2814202D249005B0018
:10013000F8E7884201D3401A1A434C08A04202D380
:10014000001B5C0822438C08A04202D3001B9C08C1
:100150002243CC08A04202D3001BDC082243002823
:1001600003D01B0901D00909E3E7101C6446002CE9
:1001700000D5404210BC7047002806D003DB0020A9
:10018000C043400801E08020000607B4024802A1F5
:100190004018029003BDC046190000000029EBD0B2
:1001A00003B5FFF7A7FF0EBC4243891A1847C046A4
:1001B0007047C046FEE70000034B01225A70A0239F
:1001C0000022DB051A707047B00C0020034B01229F
:1001D0009A70A0230022DB059A707047B00C0020B3
:1001E00008B5054B01221A70A0230022DB05DA7640
:1001F00000F044FE08BDC046B00C002038B5802594
:10020000ED052B79DBB2002B0CD130490B604B6034
:100210002B89081C9BB28B608A680C30103107F068
:10022000E3F947E0012B0DD1284BD968002941D0D3
:100230005A68186982423DDA5A68501C58602B7A15
:100240008B5437E0022B30D1204CE368002B2AD0AE
:10025000226821698A420CDA22689B5C1BBAEB6037
:10026000A3682068C01880B207F01AFA2368013327
:1002700017E0A2682368201C211CD2180C30103112
:1002800007F0B2F9E368002B0DD0A16822688A1844
:10029000A2601B781BBAEB60A06880B207F000FA7E
:1002A0000123236006E0EB6004E0032B02D1074B3F
:1002B00000225A60C0468023DB0501221A70C04626
:1002C00002221A7000221A7038BDC0469003002026
:1002D00080230222DB05FF321A600421024AFF312B
:1002E000118000221A70704706000040F8B505F032
:1002F000C9F84B4B1F22C4B21A60EF2C07D0EE2C6A
:1003000001D80134E4B2201C05F0D6F8F5E700234B
:10031000444A45499A188A4204D24449C958043388
:100320001160F5E7424B434A191D043B934203D247
:1003300000221A600B1CF6E7EFF308823E4B191DF2
:10034000043B9A4203D93D4818600B1CF7E7FFF7BE
:10035000BFFF3B493B48053904F0F8FD3A4C3B4DA3
:1003600001235B4223716371A371E3712B1C3C3346
:100370001A782B1C3D331B7880B21B021343984222
:1003800045D107F019F9324B32491888324A884270
:100390000BD06E7D18882B7D36023343984204D1F2
:1003A00013889BB223711B0A637113888B421BD085
:1003B000EE7DA87D138836023043834214D100209D
:1003C0000423013BDBB2FF2B07D0244EEF18F65C71
:1003D0003F79B742F5D10120F3E7002804D0138814
:1003E0009BB2A3711B0AE371E278A37812021A434D
:1003F000184B8A420BD06279217912020A439A4241
:1004000005D0E279A17912020A439A4204D1144B31
:1004100002221A6062B6FEE700F018F9F7E7C0465C
:100420001C000050000000209003002074A8000071
:1004300094030020AC0C0020040D0020CDCDCDCDC8
:1004400000C0000000000000B40C0020C0BF00008D
:10045000FEB30000FFFF0000BEBF000000B40000BC
:1004600000E100E0014B18607047C046BC0C002062
:10047000014B18687047C046BC0C0020014B186047
:100480007047C046C00C0020014B18687047C0463A
:10049000C00C0020014B18687047C04600000020C7
:1004A00038B5174C256805F08DF8E862256805F029
:1004B0008DF82863256805F08DF86861256805F0DA
:1004C0008DF8E861256805F09BF8A861256805F0BE
:1004D00079F92862256805F051F96862256805F008
:1004E0005FF9084B08491B680968A8621878097CFD
:1004F0002268414302331161FC32536038BDC0466B
:1005000000000020C00C0020BC0C002082B0F0B520
:1005100089B0109C151C0F930693029407900E1C33
:10052000119C04F037FCC7793A4B0497027A964243
:1005300006D11B680021DA69AB00D05A03910BE0A9
:100540001A68354B52691968731C896803964B43C6
:10055000EB1801339B00D05A0499714349194A00A2
:10056000A4182388069E0193019F7318874203D81D
:10057000C61B029FBE521CE0029EB61805960027BD
:10058000F65F013610D01F787EB2B446013601DA2C
:10059000013703E06646002E06DD013F1F7002238F
:1005A0005B42238001202FE0069F79180F78002FEF
:1005B00001D120800CE07FB27C1C05D1019E059FFB
:1005C000301A3880002002E0012F01D1FF2008708E
:1005D0001978039C049E079F48B274437D19002834
:1005E00005DC029EB25E013208D0002906D12A57EE
:1005F00000203E2A08DC0131197005E02A57002A44
:1006000001DD01391970002009B0F0BC08BC02B04E
:100610001847C046000000207C03002008B502F007
:1006200051FE021E05D10749A9230B7106F072FF86
:10063000FEE7054B1B68D868196904F00DFDFFF74C
:100640002FFF08BD970400207C03002037B506F07B
:1006500047FE6C460734207009F022FA09F050FA80
:1006600002F02AFEFFF7DAFF04F0B8FB06F038FECE
:10067000051C0E2800D90E25E8B2034B8200D35882
:10068000211C98472570F1E7140100200F4B002230
:100690001B68191CA0310A60181C0121B4304942A2
:1006A0000160826008380260C18242831038416173
:1006B0000260C2610C300183191CC4310260203910
:1006C0000A8498330A601A607047C0460000002010
:1006D000F0B589B000AFB960386005F0C7F98300A4
:1006E0000A33DB08DB006946C91A8D46041C6846DC
:1006F00005F0C2F963000833DB08DB006D46EA1A37
:1007000095466E46301C7E6005F0D0F9564B1B684E
:100710001A1CA032116863290BDD01204042844677
:10072000181C0021B430664611601C38C661416255
:1007300001601168013111601A1C9C321168632933
:100740000DDD012040428446181C0021B0301160AC
:1007500066468160191C06609831012008601168A6
:10076000013111601A1CAC32116801290BDD012026
:1007700040428446181C0021C230664611601E3873
:10078000C68341840160116801311160191CA831D0
:100790000A68012A09DD002201200A608A8340429A
:1007A0001A1C0883A432012111601A1CA832116896
:1007B000013111600022101C013C08D3A1006958CE
:1007C0007E6840186100715A521892B2F4E7191C01
:1007D000C2310024BC261D19B446AC44FD606546F8
:1007E0002D68854201D266463060FE68B4363568B1
:1007F000854200D930608E88964200D28A800E8869
:10080000964200D90A80043C261C02390836E1D100
:100810001A1C983212683D6892009A18111CB8315F
:10082000B03209681268BE688A1A2A801A1CA4327B
:1008300012680E4952009B181A1CC432C033128829
:100840001B880C20D31A9BB233802A88BB617A6143
:1008500000233A1CFB61143201230B7106F05AFE8F
:10086000BD4609B0F0BDC046000000205F01002079
:10087000F0B5234F1D1C3B68161C9A6985B0019189
:1008800092000021041C301C09F0D2F93B68281C9E
:10089000DA690021920009F0CBF9019F002F0CD0FA
:1008A000201C04F065FF174B301C1B68291C5A697B
:1008B000DB6907F07BF9013FF0E7002C0FD1114B0A
:1008C0001B685F699B69029304F056FE039004F075
:1008D0005DFE0299031C039A381C06F04BFF301C86
:1008E000291C019A07F030FA002C06D1054B201C78
:1008F0001D6805F055F8FC35A86005B0F0BDC04690
:100900007C03002000000020F8B5154B141C1B6868
:100910000E1C1A685B68071CD2189200201C00216C
:1009200009F086F9351C002D0BD0381C04F020FF8F
:100930000C4B201C1B68013D596A9A6A07F0DEF9CE
:10094000F1E704F02BFE051C04F032FE011C281C0C
:1009500006F078FF311C201C07F052FAF8BDC046A3
:100960007C03002000000020F0B5274D87B02B68E5
:1009700005919A6A00219200039009F059F906F056
:10098000E7FE04904478002C25D0042004F0F0FE0B
:100990002868026A0292029B013B019319D3436AC1
:1009A0000199039E5943C918890071180439013B04
:1009B0000DD38668029F7E439E19059F0136B600BF
:1009C000F2590E689446B44467460F60EEE7019A08
:1009D000E0E7013CD7E72F683D6A013D11D37C6A0F
:1009E000039A261C6E433619B6009619043E013C44
:1009F000F3D3049B30685978FFF72CFB0004306078
:100A0000F4E707B0F0BDC0467C030020F0B5A34E6C
:100A100097B0326804AF1368B96091689A1C4900B6
:100A20004A43F8604908101C01334B430830C008A2
:100A3000C0006C46241AA546013304AC5B00E318E1
:100A40000021201CBB613C6209F0F2F806F080FE38
:100A5000786093486B4604680025211C84313B6014
:100A600033680D701A686846043252003A610832E1
:100A7000D208D200801A5A68854604325200131CEC
:100A80000833DB08DB00C01A796204A9854604AB91
:100A9000181CF961291C7B6109F0CAF8291C3A6904
:100AA000F86909F0C5F8786A6269A369211CFC68D5
:100AB00005780094F8693431043001907869043085
:100AC0000290386A03F050FB7C6A05432570744C31
:100AD000B86823681C1C84342578DA69191C1B6AE1
:100AE00000903431B86903F0CBFA054325706C4CA3
:100AF00023687C685869227B191C0092FC6960316C
:100B000001947C69343302943A6A03F073FC3C68C4
:100B1000A54606F029FE041C07F0ECFA2479051C12
:100B20007C62786A5E4C01280BD12B1C9C331B68BD
:100B3000002B06D106F0EAFB012802D0786A04F007
:100B40007FFB236884331B78012B0CD19C352B68E9
:100B5000002B08D106F0DAFB012804D02368883383
:100B60001A68013202E023680022883325681A607F
:100B7000281C291C6031343003F016FC33684949C5
:100B80001A68686658680A709A68CB7848707F203F
:100B90008343802502206D4203432B43CB705323B4
:100BA0008A700B7101323B6A52009A18012006F0DC
:100BB000B1FC33683C49DB697F204B70CB78022263
:100BC000834313432B43CB7001206D23BA690B7110
:100BD00006F0A0FC381C00212022283009F028F85B
:100BE0003368282019682922C15558682A21D05510
:100BF0009A682B20CA55191C30310978DB69C15518
:100C00002D202C21CB55C35D7F218B4302261E4313
:100C10000132C319386A5200821835431D70391CDD
:100C200000920022131C2831012006F039FC2368B1
:100C3000586904F033FE2368586E04F0D5FD04F0C3
:100C400007FC2268164C131C84331878002808D03F
:100C500002331B78022B04D0131C88331B68192B1A
:100C60000DDD131C126834330092F9683A6A06F0FD
:100C7000F9FD2368B8681A68B96906F06BFE0220AE
:100C800004F00AFBB86907F0CDFA2068683008F074
:100C9000E5F80220BD4613B0F0BDC0467C0300203D
:100CA000000000209004002058010020F0B59400BE
:100CB000231C0A3385B0DB08DB006946C91A02AF82
:100CC0008D4602AE7860221C301C002108F0B0FF77
:100CD000231C0833DB08DB006A46D21A954602ADB6
:100CE000281C221C002108F0A3FF0B4C2368196B61
:100CF000DA6A6033009101937868291C331C08F08C
:100D0000CFF82368291CDA6A1B6B00937868331CC0
:100D100007F074FCBD46F7BD0000002070B50C1C48
:100D2000151C1E1C07F040FD144B201C1B68D96AC3
:100D30001A6B07F03FFE201C08F064FA201C07F035
:100D40003DFF321C201C291C08F006F8201C291C21
:100D500003F088F906F008FD041C07F0CBF98E308B
:100D60000378002B09D12379002B06D006F0CEFAA8
:100D7000012802D0012004F063FA70BD00000020B9
:100D800038B508F045FE051C012008F055FE041C8E
:100D9000281C04F005F8201C04F00EF8FFF73EFCB8
:100DA00038BD38B508F0DEFE08F03AFE051C00201C
:100DB00008F042FE041C281C03F0F2FF002004F09F
:100DC0005FFD201C03F0F8FFFFF728FC04F010FA89
:100DD00038BD10B5A4B0041C8C2201A8002108F075
:100DE00027FF01A8211C07F0F3FF08F01BF801A85A
:100DF000211C221C002302F05BFB24B010BD00006C
:100E000038B507F077F91A4D8E302B6801781A79CA
:100E1000002902D151B2481C04D10024DC60A24256
:100E20000DD116E0D8681A69904202DAD86801300C
:100E3000D86001290DD0DB6893420ADB01240D49FB
:100E40000020231C0E33021C0B7106F063FB2B6881
:100E50001C712B681A79002A03D1074A126812788C
:100E600004E0012A03D1044A126852781A6038BD9E
:100E70000000002097040020C00C002070B5104D29
:100E80002C68231CFF335E7AF6B2012E17D120683E
:100E900004F0B0FE031C301C002B03DD2B68186827
:100EA00004F0A8FE743404F0CBF904F0EBF907CC9D
:100EB000002302F0FDFA2B680222FF335A7270BD44
:100EC00000000020F0B589B0061C06F04DFC05902E
:100ED00007F010F9031C98331A68A14B002A08D1B7
:100EE000A0300268511E8A41D2B20492002A06D074
:100EF00001E0012004901A680021D03205E01A6850
:100F0000D0321168FE2901DC013111601B6800211B
:100F10001A1CCC3211700499002904D09149096837
:100F2000097D00295AD0181CCB300178C9B200299C
:100F300008D003785BB2022B00D00123137000238A
:100F4000037070E11D1CC8352C78002C09D00124D9
:100F500014701A1CC932D4330170297011701960D1
:100F600062E10498002839D1191CD4310C68002C96
:100F700009DD013C012C01D00C602FE0049B0B60CB
:100F80000323137050E11A1CFC3252681188764A10
:100F9000914223D01A1CE0321188744A1268528898
:100FA0008A421BD86F4C2068427C181CD0300068E5
:100FB000904213DB07AA1180E2331B886C495380EF
:100FC00002234B70CB70049815230B7106F0A2FA24
:100FD000634B22681B68927CD4331A60614C27688B
:100FE000F87C002800D01EE104995D4D002900D056
:100FF00082E02C68231CFF331B78002B56D03B1C4F
:101000002C331B78002B51D0231C0791F4331B6821
:101010000393231CE03303981A8843009A533B1C24
:101020002D33197804984B00F618031C994206D00A
:101030005A00B21A023A128801338018F6E7FFF715
:1010400057F80790FA8B231CF833904202DA1A689B
:10105000013200E000221A603A1C2E3212781B681E
:10106000934215DD42497C235B42CB7007AA1623CD
:10107000012400200B714C7006F04CFA2B68002004
:101080001A1CF432F8331060186006F07DFACBE0D9
:101090003B1C2D331A780399231C013AF4339142F7
:1010A00002DA0A1C013200E000221A60DC34013747
:1010B000FB7F22689A4217DB2E4900201223021C74
:1010C0000B7106F027FA2A682648131CD8331968D2
:1010D0000068013119600230C07F814204DB0021C9
:1010E0001960CC32022313702A680023111CCA3104
:1010F000DC320B70136047E02B681A1CD43210608E
:101100002A321278002A3FD0191CE031098807AA38
:101110001180E2331B881649538002234B70CB7039
:1011200019230B7106F0F6F92B682268191CE031BF
:101130000C88D08B163984421ED2181CE2300488E9
:10114000508D844218D2097800291DD1DC33013238
:101150001968D27F914217DA0131196014E0C04654
:1011600000000020BC0C0020FFFF0000C00C00208D
:10117000580100209704002001220A70191C002247
:10118000DC31D8330A601A60294D2B681A1CFE32F4
:101190001278002A47D105980279002A41D01A1CFA
:1011A000C8321478002C3ED1224E586B3768798BA8
:1011B000BA8BFB8A3F8B009706F08EFA36682B6855
:1011C000718CB28C071C586BF38C368D009606F030
:1011D00083FA2B681A1CE0321188E233B94202DA32
:1011E0001A88824210DB07AA11801B88124953809B
:1011F00002234B70CB70002017230B7106F08AF985
:101200002B680122C9331A702B681A1CC932127854
:10121000002A08D00499002905D0C83301221A7089
:1012200002E0C9331A700124201C09B0F0BDC04689
:1012300000000020BC0C002058010020F0B591B047
:1012400002AF03F0A7FD061C03F0BCFD386103F0FC
:10125000ADFD786003F0BCFD031CF86059331878CD
:10126000FB6808225A33197804F0CAFDB14B68466E
:101270001C680021A3691A1C0E32D208D200801A01
:10128000E26985460E32D208D200801A02AD854648
:10129000FD6102AD7D62F2799A18131C0E33DB08F2
:1012A000DB00C01A53000E33DB08DB008546C01A92
:1012B00002AD8546C01ABD6102AD854602A87861BF
:1012C000B86908F0B5FCA169F279281C521801210F
:1012D0005200494208F0ACFCA369F2799649D21851
:1012E0005200786908F0A4FCA2693969F8693D6385
:1012F00008F05CFC3969E269F931FF31786A402411
:10130000002508F053FCBC603D62796AF86905F07D
:1013100085FC002004F02CFA864D88492B68884C07
:101320005A6818684A709A680423CB7051230B716D
:1013300023688A705B690132920008709A18022053
:1013400006F0E8F82B687F49DB6904254B705A23C7
:101350000B7123680220DA69CD7006F0DBF8347A6D
:10136000013C631C2CD0F579013D6A1CF8D0F3795F
:1013700078696343EB185B001A5A734B9A42F3D0B7
:10138000B96930223960F9627863D219694609CAAD
:1013900009C1211C3B68F8692A1CFFF7B7F800282F
:1013A00003D03B6A01339BB23B62F379BA69634372
:1013B0003869EB18D15CC25C8A18F969CA54D3E762
:1013C000747A013C601C2FD0317AF3797D694B43EC
:1013D000E3185B005A5B5C4B9A42F2D0BD69302047
:1013E0003D60FD62C0197D6984467D636846624642
:1013F00028CA28C0221C3B68786AFFF787F80028B3
:1014000003D03B6A01339BB23B62F379327ABD6908
:101410005A432B193D699A5C2919F931FF310B7830
:101420007D6AD3182B55CCE7424B3C6A1B689A69FE
:10143000DB69D3189C4206DABB68013BDBB2BB60B8
:10144000002B00D061E73D49337A7F250B70F3799B
:1014500080244B708B70CB786442AB4301252B43C7
:101460002343CB700820D223FA690B7106F052F89F
:101470003449737A7F204B70CB787A6A83431D435B
:101480002C43D32308200B71CC7006F043F8337A39
:10149000013B0FD3F279013AFAD3F1797D685943D0
:1014A000FC698918E818611887300C7800782018D2
:1014B0000870F0E7737A013B08D37C687D6AE21814
:1014C0009F321178EA5C8A18EA54F4E7F869796A7D
:1014D00005F0A4FB1949337A7F200B70F3790125BD
:1014E0004B708B70CB78802483432B43644223431F
:1014F000CB70FA691D2300200B7106F00BF811491F
:10150000737A7F224B70CB78002093431D437A6A15
:101510001E232C43CC700B7105F0FCFFFB680422EA
:1015200059331878FB685A33197804F069FCBD46C2
:101530000FB0F0BD7C030020FFFF000090040020EE
:101540000000002058010020FEFF000008B503F055
:101550002DFC85300378002B02D1FFF76FFE01E0F0
:1015600004F0EEFA08BD0000F0B5CA4C9BB0236849
:1015700000AF9B68B861BB625B005E1C03F076FF46
:101580002368FF229B68F865D31A984200DDFB654B
:10159000F86DBC6A7500041B7C6203F06DFF2B1CA8
:1015A0000833DB086C46DB00E01A85463C656C4678
:1015B0007C65B94C012363707C235B423A1CE37069
:1015C000211CB12300205C32237105F0A3FF00230E
:1015D000211CB34206DA7C6A5A0018197C6D01336B
:1015E000A052F6E7F4B24C703C6200247A6D0223FC
:1015F000201CCB700C7105F08DFF2B1C386D08334F
:101600008546DB08DB006946C91A8D46C91A68465B
:101610008D46F963386404F029FA7861012003F0FB
:1016200079FE211C2A1CF86B08F002FB211C2A1CE5
:10163000386C08F0FDFAB300FB610A33DB08DB000D
:101640006846C01A796985466A46C01A8900BA6335
:1016500085467863B9603C650021FA69B86B08F08B
:10166000E7FA786BFF21FA6908F0E2FA0024894B67
:10167000FC641B68FC6C5B689C424CDA7C6AE4B2DC
:10168000201C3C6303F018FF03F0D6FE03F037FE86
:1016900000207D6BBC6B7865796DF30F0131CA1743
:1016A000B1425341DBB279653B61002B06D13A6B05
:1016B0005018C0B203F000FF03F0BEFEBB686846DE
:1016C0000A33DB08DB00C11A8D466B46F860181C34
:1016D000BB6404F0D1F900231A1C79698A4205DA47
:1016E000B86C9100415801325B18F6E722689342CA
:1016F00000D923602868834200D22B60F9683A69D8
:101700008D4604350434002A02D103F0F8FDC3E706
:10171000FC6C0134ABE70024604D7C65B44217DA01
:10172000B96B7A6BA300C858D358C01A854204DD40
:101730007B6A051CE318FB627C64796D814200DAE8
:10174000786503F0DBFD3A6C6300D0520134E5E7C5
:10175000786D03F0D3FD4F4B1B685B88984206DA27
:10176000BC69012C03D0FC6DFC62BC6A7C644C4DEE
:1017700032222C680221231C98335A6064229A601A
:10178000012200205A617A6C1860D86019617B6B65
:101790008A40D358FA64181C7B6003F0AFFDB03464
:1017A000F96CBA6B206088582C6803F0A7FD2B6891
:1017B000B8341A1C01212060C23200244942C633C9
:1017C00011801C80BC69012C21D1FA6B0023B3422B
:1017D00009DA3C6C5900615A1088884200D21180A5
:1017E00001330232F3E77C6C6300FC6B1A5B3C6DE7
:1017F000131CA24200D2231C27499BB23C6A3B65C2
:10180000002002234C70CB700871FA6B0DE0786DEC
:1018100003F074FD204980B200223C6A38650A71E9
:1018200002203A6CC8704C70002005F073FE7C6C8E
:101830006023DC53FC6A6220C453786C396C44002A
:101840000C192388386D64221349D3536623D85367
:1018500004234B703A1C0223CB706032B223002069
:101860000B7105F057FE0E4D23882A68111CFC31C0
:1018700049680988994217D208F074F9002824D1E0
:10188000084B1B68DB7C002B1FD1012005F076FE86
:101890001BE0C046C00C002058010020FFFFFF7F66
:1018A00000000020BC0C0020FF321278002A0CD06F
:1018B0000E4C21684A889A4207D9002005F064FE40
:1018C0002B682268FC3302325A60BC69002C06D1B6
:1018D000FC6AE0B203F0F0FDBD461BB0F0BD05F0C0
:1018E000FFFC072800D1B7E6F2E7C046C00C002095
:1018F000F7B5009208F036F9071C05F01DFD061C2F
:1019000005F022FD5C4D01902B681A1CFC32127808
:10191000B2421AD0002E08D0584900203B23021CA6
:101920000B71002405F0F6FD0BE00199022400295B
:1019300007D152493C23301C321C0B7105F0EAFDE3
:10194000341C2B68FC331E7015E0FD331B78019AA4
:1019500093420FD0111C4B424B4100204749393371
:10196000021C0B7105F0D6FD2B68019AFD331A702D
:10197000002400E0022405F0BBFC061C05F0D4FCAA
:10198000009B032B02D0002E03D107E00024A642C7
:1019900034D0002005F0B4FC00242FE02B68FC3389
:1019A0001E88002E2AD10099012902D0022904D0D4
:1019B0000EE0009805F0E2FD0AE0301C05F0DEFDC7
:1019C0002B68FF331B78002B02D0301C05F0DCFDA8
:1019D00005F0CEFD2B68061CFE331B7883420DD02C
:1019E0001123002801D11223071C24490020021CC6
:1019F0000B7105F08FFD2B68FE331E7008F0B2F8F6
:101A0000B8422ED008F0AEF808F00AF8381C08F0FA
:101A100007F808F0A7F8381C08F09EF808F070F8EE
:101A2000174B1B681B7D002B07D0002C05D0002016
:101A300003F09EFEFEF72AFE06E02B680024E43346
:101A40001C70201C03F01CFF002005F09DFD2B687E
:101A500000211A1CFF3211700A4AFC33126802324C
:101A60005A6005F079FC051C06F044FB0379AB4293
:101A700000D00571201CFEBD00000020970400204E
:101A8000BC0C0020C00C0020F0B591B001AD141CBE
:101A9000061C0F1C0C220021281C08F0C9F8124B50
:101AA00004A80193114B002130226B6008F0C0F8AC
:101AB0003B780A946C4609930334002308962370FC
:101AC000207804AA830000011018EB58211C9847C5
:101AD000207005F01BFC002803D105F001FCB0428A
:101AE000EED011B0F0BDC046C9300000DD300000BE
:101AF00010B5044B1C688634207805F0CFFF2070A9
:101B000010BDC04600000020F0B589B002AF3861BA
:101B1000062079603A6003F02BFE5B4E5B4C336825
:101B20005B4D5B68042063702B685121E07021716C
:101B30005A6A211C022005F0EDFC336804221B6860
:101B4000211C6370512323712B68E27002209A6A72
:101B500005F0E0FC28686C30786106F061F83368C5
:101B600068465A681B68510008315B00C908083391
:101B7000C900DB08401ADB008546C01A02A9854669
:101B8000F96002ABBB60F8682B6892B2596A0090AA
:101B90007B69019338697B6806F04EF833683A69CF
:101BA0005968880010182A68916A1A88BB680093DF
:101BB0007B6901933B6806F03FF833687F205B68E0
:101BC00002216370E378802283430B435242134324
:101BD000E370211C53230120FA68237105F09AFC5D
:101BE00033687F201B6802216370E378802283437F
:101BF0000B4352421343E370211C53230120BA6864
:101C0000237105F087FCE37802207F2160708B430D
:101C100002228020134340420343E370211C5223DD
:101C20007A690120237105F075FC78692C6805F04C
:101C30001FFF2B6885341A1C207085321078341CE5
:101C4000002803D001321278012A16D121681B68BE
:101C50008A8839690091F96805F0ACFE2B68216823
:101C60001A1C853210780A8849683C698900611815
:101C70001B680091B96805F09DFE03F02FFB022060
:101C8000BD4607B0F0BDC0467C03002058010020CF
:101C900000000020F7B53E4C161C23681A1CC93200
:101CA0001278002A1AD01A1CFE321278002A15D196
:101CB0001A1CE4321178002910D1C8331B78002B8C
:101CC0000CD10123137003F071F803F063F803F0F3
:101CD00011FD022003F024FDFEF7D8FC23681A1C36
:101CE000E4321278002A4FD01A1C2A4F0020C83242
:101CF00010703A680190D26A011C013A0ED30E2589
:101D00005543AC46B4446546AD88002DF5D02DB2A0
:101D10000131A842F1DA281C0192EEE71A1CFE32CA
:101D20001278002A13D1012911DD06F0E3F901230D
:101D3000983003603B68DB6A013B0AD3019DAB42EC
:101D4000FAD00E225A430021B2189180F4E70029FC
:101D500004D023680022EC331A6008E01A1CEC322D
:101D6000E83311681B68994201DC01311160236876
:101D7000191C1A1CEC31E83209681268914205DD21
:101D8000C83301221A7001E0EC331A60F7BDC04677
:101D9000000000207C030020F0B59DB002AFB861C8
:101DA00002207B6079613A6203F0BAFC381C0021A2
:101DB0002022283007F03CFF8E4E2820336829224D
:101DC00019688D4DC15558682A21D0559A682B2025
:101DD000CA55191C30310978DB69C1552C212D20D9
:101DE000CB55C35D7F218B43042003432D21CB556D
:101DF0002B6801325B6992009A180092391C00220C
:101E0000131C0220283105F04BFB2968081CE03028
:101E1000E231FEF75DFC3368784C5B687F226370CB
:101E2000E3780420934303431340E3705B2323715F
:101E30002B6802209A69211C05F06CFB33687F2116
:101E4000DB6904226370E37802208B4313430B4069
:101E5000E3706C2323712B68211C1A6A05F05AFB6E
:101E60007969B869FEF7D2FD3B6A38611B68386A48
:101E7000396A3A6A7B6240688968D2683B69F8616E
:101E8000F9603A62022B00D0A7E0336869469A6B8A
:101E9000B9601201131C0833C81A854602AE301C03
:101EA000002107F0C5FE2B68FF335B7A012B01D1BF
:101EB00003F05CFB4F4C301C2368F9699A6BFEF70A
:101EC000F5FE236800215A6B0E235A43786A07F007
:101ED000AFFE3B6A301C796AFA69FEF71FFF78682B
:101EE000FEF7F0FF464B1B681B7D002B04D1B86941
:101EF00079697A6AFFF7CEFE786AF96901F0C8FC61
:101F00003D4D2B68FF335B7A022B01D103F02EFB92
:101F10002B68186803F06EFE031C0120002B03DD04
:101F20002B68186803F066FE03F08AF903F0AAF93B
:101F3000F969FA680123786A2D6801F0B9FAFF356A
:101F4000687207F09BFA83000733DB082468DB0024
:101F50006946C91A636B0E255D43061C8D46786A77
:101F600002AA3A62FB6145197E62F8690138F8619C
:101F700011D32B1C0A3B00215B5E002B09DD7A6A22
:101F80003B6A013A90007A62A91F1818042207F0F0
:101F90000DFE0E3DE9E73D1C483500212022281C9E
:101FA00007F046FEE1682269636929701249AB7047
:101FB0006A70096830342278096B0133EA705B007B
:101FC0007E22CB1852426A7100933B6AF2B2032020
:101FD000291C05F065FABB689D4603F08BFB03F0F6
:101FE0007DF9012003F0C4FB03F010FA3869BD4607
:101FF0001BB0F0BD7C030020000000205801002031
:10200000BC0C0020F7B51A4E051C30680C1C171CC0
:1020100000212C223430019307F00AFE15490020DC
:10202000A623021C0B7105F075FAFEF7E9FE019973
:10203000089A381CFFF768FDFFF75AFD211C099A22
:102040000A9B281CFFF7A8FE3368CC22071C9A566F
:10205000281C211CFFF74CFC022800D1381C064B21
:102060001A68064B9A4202D003F0AEFCFEE7FEBDB2
:102070000000002097040020000D0020CDCDCDCD24
:10208000F0B593B00024161C6A460F1C051CD472D0
:10209000211C0C2203A807F0CBFD1B4B211C039332
:1020A0001A4B302206A8049307F0C2FD3B7818496A
:1020B0000B93184B0A951B680C96DA6ADF6901923C
:1020C0000222DA62DC61201C3F23221C0B7105F026
:1020D00021FAA20006AB24011819694603ABD358B4
:1020E0000B319847041C05F011F9B04206D0094B9A
:1020F000019A1B68DA62DF6113B0F0BD05F0F0F8F9
:10210000A842E6D0F3E7C046C9300000A53200007F
:10211000970400207C03002038B5074B051C186885
:102120000C1C2C220021343007F082FD281C211CBD
:10213000FEF76CFCC0B238BD00000020F0B5DF4EE9
:10214000EFB0336802AF1D683962596802244D430D
:102150007A6005225C639A63DB696A46EB18A340E8
:102160000A33DB08DB00D21A954602ABBB61B860CC
:1021700002F02EFE05F0C4FF381C00211022403072
:1021800007F056FD00233B637B63336869465A6A58
:102190001B6AA5405343A3400A33DB08DB00C91A7E
:1021A0008D463B1C02AA70337A61BB6305F0D0FAFE
:1021B000BB695D193D611A1C41782B1C201CFEF780
:1021C00057FBBF4C786923685969FEF7CDFB396A24
:1021D000BA68914201D005F0CFF8BA490020A22395
:1021E000021C0B7105F096F9236800249C60FC61C9
:1021F0007C6205F0CFF9386203F044F93B6A9842FB
:1022000005D0181C03F058F9012139624EE1002C69
:102210006FD16B46FB60A94B1B685A6A51001A6A62
:1022200001324A43131C0833DB08DB006946C91A34
:102230008D4602AE301C211C07F0FAFC7A6AA04DD4
:10224000082A06D12B6878695969FEF78DFB7C62F4
:102250004AE0042003F08CFA2B68301C59697A6933
:1022600005F0E4FD051E012D0FD104F0EFF802206A
:1022700003F07EFA9349A323201C221C0B7105F066
:1022800049F900232C1C7B622EE08F4D311C2B68FA
:10229000786933331A7805F0A1FE2B68F969333376
:1022A0001B785B00994208DD04F0D0F80220012180
:1022B000BA693B69FEF7DCFAFC61FA692B68013206
:1022C000FA613233187803F0F7F803F005F92B6858
:1022D0003333187802F0C0FF002002F0DDFF386AC7
:1022E00003F0EAF803F014F9FB6802219D46396215
:1022F000C5E0754B01241B6834331878704B1B689C
:10230000186002F0A9FF022003F00AFAB8693969DF
:10231000FFF702FF3862022800D0B0E0674D6B463D
:102320002E68FB60B16B0A01131C08336946C91A99
:102330008D4602AC0021201C07F07AFC391CB26BE0
:10234000201C4031FEF7B2FC2B6869465A6B0E2305
:102350005A43131C0833DB08DB00C91A8D4602AD53
:102360000021281C07F064FC3A1C3B1C403230332F
:10237000201C291CFEF7D2FCA91C281C06F0E6FF35
:10238000281C291C0E30103106F0E0FF391C281CD7
:1023900038317A6A07F09AF87862032803D0072860
:1023A00029D1182405E0381C383007F0E7FA041E5C
:1023B00024D004F0B3FF444B1B689B6B18400123EF
:1023C000A340034217D02C2302212D22D819D9551E
:1023D000D45505F03DF803F08DF9012002F030FFEF
:1023E00038490020A223021C0B7105F093F8082342
:1023F00000247B6241E07A6A082A05D003F07AF96A
:10240000012403F0B3F838E004F0AEFF002827D031
:102410000225381C2A1C2D492C3007F0C7FB381C1C
:10242000291C2C303C1C503405F012F8052005F016
:1024300031F800212022201C07F0FAFB3C22D35D5A
:102440006570237080235B42A5701D433B1C703375
:102450000022657105200093211C131C05F020F853
:1024600003F048F9012002F0EBFE16490020A223F8
:10247000021C0B7105F04EF80024F9688D46104BD4
:10248000134A1B689968914202D09A6801329A6097
:102490003A6A022A0AD104F039FF7B68984205D1D2
:1024A00004F01EFFB968884200D1A2E603F022F9C9
:1024B00003F0CCFF386ABD466DB0F0BD7C03002050
:1024C0000000002097040020BC0C0020CC9C0000E1
:1024D000FFFFFF7F70477047F0B5ABB000AF061C41
:1024E00002F058FCC04B69461C68636822685800BB
:1024F0005A435500D2185200131C0833DB08DB0086
:10250000C91A8D46F86500216846386507F090FBCA
:102510006368226899005A439000D2189200131CF5
:102520000A33DB08DB00F9646946C91A8D46B865D1
:1025300000216846B86407F07BFB63682268990055
:102540005A439000D2189200131C0A33DB08DB00B8
:1025500079646946C91A8D46B863FF216846F863F5
:1025600007F066FB0CCC5A43D3180733DB08DB00BB
:102570006946C91A8D466B46701E0021FA623B629D
:1025800078637965162810D80123984A834013424E
:1025900006D1974A134208D0964B1B682F3302E0AE
:1025A000944B1B6831331B787B65FA6CFB6D92088A
:1025B0005B083A63BB62796DBB6DBA6C786CD218FC
:1025C0000139F9647A64396DFA6BBB6B8008F86184
:1025D000D21868084D19B8617D617A62FB6C0133CD
:1025E00000D1D4E0786B022804D9331C113B012BB5
:1025F00000D9C8E0002003F0BBF87B4B7E4A1D6881
:1026000012682B68BC6E7B66BA63BB65BB6D013B11
:10261000FB6570D36C68013C611C69D0AB68B96D17
:10262000BA6B4B43E318013352699B009858032E51
:102630002DD004DC012E06D0022E0ED0EBE7331C89
:10264000113B012BE7D8BB6B9B69FB60F968A300CA
:102650005B58C01AC343DB171840FA6D3B6BB96C6B
:102660005343E3189B005958BA6C40189850FB6CC0
:10267000002BD0D1F96DBB6A4B43E3185B00796D39
:102680003B64FDF7E7FC3A6C3B6DD052C3E7F96D54
:102690003B6B4B43B96CE218920052583A64824249
:1026A00000D23864396CBA6CE3189B009950FB6D0A
:1026B000FA69F96B5A43A3189B003A605A5894463A
:1026C000824200D984463B68F86BE1188900624673
:1026D0000A50386C7F21831AFD2B01D85B0899B210
:1026E000BB6AFA6D386D5343E3185B00195292E7E9
:1026F000FA6DBA658AE7ED69F86DFD65BC663E4B1B
:10270000FC6D1D68013C7866A400F96D0139F9651E
:1027100039D3E9690859022E09D0032E17D0012EAA
:102720002FD12A6A1359C01AC343DB1718407B6C98
:10273000796C1B59FA6CC0180851002A21D1796DA7
:10274000FDF788FCF96D7A694B00D05219E07B6C7B
:102750001A59031E934200D2131C796C0B51796AEB
:102760000A59904200D9101C7A6A1051181A7F2217
:10277000FD2801D84008C2B2386AF96A4318F86DDA
:102780001A54043CC1E7FA6C013AFA6426E7164D84
:102790001A222B6818685968F864F965DC693033C7
:1027A0001B78381C00216C30FB6207F041FABA69D3
:1027B0003B6D5100181C5918321CFFF78CFEF86D48
:1027C000331C113BF863012B66D8112E16D12B68F0
:1027D000011C5B680139013B3C1C00227B63F963EF
:1027E00068347A64012317E07C0300200400400071
:1027F00003000300BC0C0020000000202B68F86CD4
:102800001B68F96D013B01383C1C01227B63F864B5
:10281000F96364347A6400232D68BB6528687866A0
:102820007B6E591E79657966002B34D06968B9666C
:10283000BA6E531EBB66002AF2D0786D796CBE6A00
:102840004218386B4243B86DC1188A18B96C9200AF
:102850005058796D3A6B4E434A4384469A18B86C87
:10286000920012582168786B9E19760081420EDA28
:102870006146FA208B1A80008918584349100029B4
:1028800000DC0121FDF734FC3A6DB052D0E7386D21
:1028900000233352CCE71C1CFB6BF86DF96A3D1C1E
:1028A0008835FA6C6B70A870E970381C391C7E236F
:1028B0005B422A706C311A228E306B712C7107F0DA
:1028C00075F9281C396D04F069FDBD462BB0F0BDCB
:1028D000F0B5A3B002AF02F05DFA051C04F02CFFC6
:1028E000E14E68463468A369A6685A00111C0E318F
:1028F0009B00C9080E337E66C900DB086D7A401A5A
:10290000DB008546C01AFD6602AD854602AE281C76
:1029100000213D653E6407F08BF9E36968465A0083
:10292000111C0E319B00C9080E33C900DB08401A88
:10293000DB008546C01A02AD854602AE281C002188
:10294000FD64FE6307F074F9656823686E005A1928
:10295000BE675619F0184119CB185B00F9650333AF
:1029600003218B43FB673867F86F9300C3180A3362
:10297000CB408B406946C91A8D4602AB52005008C5
:102980009A18B864BA63101C0021BA6F7B6707F00D
:102990004FF97A6F236876007108961979645A00A6
:1029A000301C00217E6307F043F966680021720045
:1029B000786F07F03DF9B86F7E6F216836184A00CE
:1029C000301C00213E6607F033F93E6F60687300EB
:1029D0005E083E637E6F4200F318181C0021FB6204
:1029E00007F026F9FE6D206873005E08FE657E6FB5
:1029F0004200F318181C0021BB6207F019F9FE6FA2
:102A00006068B608BE67B3007E6F8200F318181CBA
:102A100000217B6207F00CF9FE6FAD007519AD085F
:102A20003D67AB007D6F2268EB189200181C0021F7
:102A30003B6207F0FDF8002002F09AFE8A4E8B4BB5
:102A400030687E6E0468321C62431D68B3005B42CE
:102A50009100FB61B307F967F31A9107BB61891A0B
:102A6000BA65013C22D34668BA6D9319664376185D
:102A7000B2003E6C9B00B218BA66FA6F93420BD05C
:102A8000BA6E0426D21894466A697642D258B44483
:102A900066463260043BF0E7FE699219FA677E6E83
:102AA000BA6D921BBE69BA658919DAE76F4B19686E
:102AB000FB6E013B9B001D1D05D0CA69FC6BD25803
:102AC000E250043BF7E7BE6F3D6F7C6FB300AE0092
:102AD000A619E3187E656426BB66FE67062002F031
:102AE00047FE614B614918680C684568AB00BD65DD
:102AF000BE6D043B013EBE650BD3BE6E626AF658E6
:102B0000FE60D658FA68B4469444BE6E6246F250EF
:102B1000EEE704680968A300221C043B013A09D3CC
:102B20007E6DF6583E608E6AF0583E6830187E6DB5
:102B3000F050F2E7FE6F013EFE67002ECED1B86F77
:102B40006E1E3618796FB6008E19013D07D33068B6
:102B50006421FDF77FFA00043060043EF5E73E6F24
:102B6000651EAD197E6FAD007519013C07D328684D
:102B70006421FDF76FFA00042860043DF5E7FB6E61
:102B8000FC6E013B9B00FD6C3E6B3B676300EB18EA
:102B90007B61FD6D73005B42BC6C7E6CBB656B0042
:102BA00064005B427600BC667B65BE64002002F078
:102BB000DFFD2D4B2D4A1868156803687A6E5A435D
:102BC0009100F9679107891AB967FA66013B34D316
:102BD0004168FC6E0E1C5E436218254C9200091978
:102BE00089193C6D49006118BC6F36193C6CB60000
:102BF000A6197E60FC6FA24213D07E68B418043C14
:102C00002668B4466E69B4586646361B7E64002654
:102C10008C5FA4467C6CA44500DA0C80043A02392F
:102C2000E8E7FE69F96EA419FC677C6EBE6F091BAC
:102C3000BC69F9663619BE67C8E70C4B00221C68F0
:102C40003B6F181D16D0E669FD6BF058ED58281A39
:102C50007D69A918023900268D5F854200DA088057
:102C6000023A043BEDE7C0467C0300200000002050
:102C7000FFFFFF7F062002F07BFD4C4B4C4C1B6896
:102C80002568BE6B596A6C33AA8800960193786AEE
:102C90007B6F04F0D1FF20683C6B42687D6F531E50
:102CA0001B195B00EB18013A0DD3BE6DBD6E99196F
:102CB0004E5B1C88311C25B236B2AE4200DA211CB4
:102CC0001980023BEFE7394B7E6B1B680288996ADB
:102CD0006C3300960193386A3B6E04F0ADFF344BC1
:102CE000FC6D18687D6F0268531E1B195B00EB18A2
:102CF000FA67FC6F013CFC670ED37E6D1D889C1942
:102D0000211CBC6C0E5B341C31B22EB2B14200DA15
:102D10002C1C1C80023BECE7264903797F254B7075
:102D20008B70CB780226AB4380256D423343522013
:102D30002B430A7008713A6D0120CB7004F0EAFB56
:102D40001B4E1D4C33687F21DB6902226370E378E0
:102D500001208B4313432B43E370211C7123FA6C36
:102D6000237104F0D7FB33687F205B680221637016
:102D7000E378522283430B432B432271211CFA6ACE
:102D80000120E37004F0C6FB33687F261B68022035
:102D90006370E3785221B34303431D432171012043
:102DA000211CBA6AE57004F0B5FBFFE600000020C4
:102DB0007C0300209004002058010020F0B585B06D
:102DC0000E1C071C04F0A2FA01AC051C0021201CFB
:102DD0000C2206F02DFF074B381C0193064B311CCB
:102DE0006360AB001B592A1C984701F0F1FF05B046
:102DF000F0BDC046891A00008120000010B5041CF7
:102E000004F0BAFA04F06CFAA042FBD006F01EFE01
:102E1000FDF704FC04F030F910BD000070B5061C8D
:102E2000FDF7AEFFFDF730FB1C4B041C1B685D88F3
:102E300004F01CFA002002F023FD02F0DBFC02F09B
:102E400021FBC0B204F0ACFBFDF72AFBFEF77EFBD2
:102E500004F092FA04F09AFA052815D004D8002854
:102E600014D003280AD806E006280AD0021C113A1A
:102E7000D2B2012A0AD8FFF72FFB07E003F064FF64
:102E800004E002F0B5F901E002F09AF904F028FA42
:102E9000B042DFD0FDF785FF658070BDC00C00201B
:102EA00010B5041C04F068FAFEF750FB04F018FAA1
:102EB000A042FBD010BD10B5041C04F05DFAFFF772
:102EC00009FB04F00DFAA042FBD010BD10B5041CA4
:102ED00004F052FA02F078FD04F002FAA042FBD0AE
:102EE00010BD704710B5041C04F046FA0120FEF72F
:102EF0003BFB04F0F5F9A042FBD010BD70477047D2
:102F0000F0B5A3B002AFF860002006F025FE06F091
:102F1000F7FD002002F0B4FC624C694623685D684E
:102F20001868DB694543EB180733DB08DB00C91A77
:102F30008D4602AE7519FE6101F02CFF01F042FFD3
:102F400001F034FFF869291C3D6102F0C7FD2368D8
:102F500068465A68DB69D3189B000A33DB08DB003C
:102F6000C01A854602AE7E6104F006FA381C0021C4
:102F70002022203006F05CFE4A4C202023682126C7
:102F800019681A79C1552220F255C2551A1C3032DF
:102F90001278DB692321CA5525262422D355F35DF7
:102FA0007F22F0199343FE6901221343391C00224A
:102FB00003702031131C0096042004F071FAF869A4
:102FC000396903F02BFE002002F0D2FB2568364A57
:102FD0006E6814687E6000237E68B34206DAA069DA
:102FE000990040587E6901337050F5E779681068A0
:102FF0007A698C00EE6914190023B34205DA016A7C
:103000009A0089580133A150F7E73C1C4034201C3A
:103010000021202206F00CFE2B6878682370AB6834
:103020006070A37030352A782671E27062797F264D
:10303000B24304252A4362711B4A013312689B0084
:103040005269211CD3180022203400930220131C43
:1030500004F026FA00212022201C06F0E9FD0123BD
:103060002370104B10201B68211C1A796270A2700B
:103070001A1CDB693032127823716379E270B34332
:103080007E6900221D436571131C009604F008FA46
:1030900004F026F9FE68B04200D167E7BD4621B0D2
:1030A000F0BDC0467C0300200000002008B504F0FD
:1030B00063F9FFF70DFC10B5041C04F05DF904F092
:1030C0000FF9A042FBD010BD08B502F0DBF9C0B289
:1030D00004F066FAFEF73AFA012008BDF0B56D4D2E
:1030E0000A232C68017802796668007A91B06363DC
:1030F000102304AFA3632368B860301C5843B96140
:10310000E169FA60421892000A32D208F318786234
:10311000D2006846801A9A000A325B00D20808334F
:10312000D200DB088546DB00801A04A98546C01A58
:1031300004AA854604AB7600181C39623A61002166
:10314000321CFB6106F074FDF86922688619520092
:103150000021301C7E6106F06BFD04F0D1FF2B686E
:1031600069465E6B0E2373430833DB08F400DB0013
:10317000C91A231C08338D46B600C91A04AA8D4605
:10318000C91A331C083304A8DB088D46DB007A60BB
:103190006A46D21A04A9B96295460021221C04ADE0
:1031A000F86206F045FD221C0021B86A06F040FDD9
:1031B000321C281C002106F03BFD374CBA6A2368FC
:1031C0007868F96A58679967DA670433DD67334BC3
:1031D00068461B682D331A785200131C0833DB082D
:1031E000DB00C01A854604A9B962081C002106F05C
:1031F0001FFD04F0ADFA7A6A3B6A95005D194178CB
:103200001A1C061C2B1C0020FDF732FB71780620CF
:103210003A69FDF779FBF868B969884201D004F092
:10322000ABF8236800229A6004F0B4F9041C02F0A1
:1032300029F9A04204D0201C02F03EF9012422E02A
:103240007A69154E00923368291C74330193BB6A66
:1032500002933A69FB69386AFEF7D4FE3368104A74
:103260009968041C914202D09A6801329A6002283F
:1032700009D104F04BF8B968884204D104F030F861
:10328000BA699042D0D0F86AFDF7A3FD201CBD4674
:103290000DB0F0BD7C03002000000020BC0C00201D
:1032A000FFFFFF7F031C10B51A7A0C1C00781979F8
:1032B000FEF744FF207010BD08B501F08BFA03F053
:1032C00063FF08BD08B502F095FA01F0F5FE01F0C4
:1032D00097FE01F049FE164B1B689A7A154B1B6846
:1032E0009433002A01D0002200E001221A60A023BA
:1032F000DB059A8B0C218A439A83998B0322914395
:103300009983D97F91430022D9775A639A6B3F21E1
:103310008A439A639A8B30218A439A8362B602F079
:103320003FFE03F06BFA002801D003F04BFC08BD10
:10333000D00C00205001002070B5051C0C1C161C80
:1033400004F04EF8002802D001280AD023E00E2015
:103350004643AD19EA88FF23FE2A00D8D3B2637131
:1033600019E00E2070432818C288FF23FE2A00D8D7
:10337000D3B263710B220A238256C3560921D31A92
:103380000822415682568A1A934202DDA371E271E5
:1033900001E0A271E37170BDF7B5141C061C1E2775
:1033A000201A0D1C8A1A784364210092FCF7A0FEB3
:1033B0002818009A01900A23301B584353434000B9
:1033C000C318601B4743FA21DF190920784389009D
:1033D000FCF78EFE019B64001F18651B009A872076
:1033E0008723AE1B40009B00704353430249C01823
:1033F000FCF77EFE3818FEBD1027000082B0F0B545
:103400001A1C87B0120C01920D930FAA1E1C538830
:1034100036B203930023D75E041C0D0C08B23A1C8D
:10342000311CFFF7B9FF019B039A80B21BB20290D7
:10343000208028B215B2191C2A1C0193FFF7ACFF9B
:1034400080B26080B74206DD029A13B2BB420ADC4A
:10345000B3420DDA07E0B7420ADA029A13B2BB426E
:1034600001DBB34204DDBE19F70FBE1976102680CA
:10347000019B9D4205DD00B2A8420ADC98420EDAAB
:1034800007E0019B9D420ADA00B2A84201DB9842A4
:1034900005DD019AAD18EB0F5D196D106580201CDC
:1034A00005F07EFF07B0F0BC08BC02B01847000072
:1034B000F0B597B00F93BC4B00261B680C909C682E
:1034C000DD680D940A951C695D699B690B940793EF
:1034D000B64B0E911B6806928E331E70099503F051
:1034E00085FFB34B01241B68FC331B780894B3425F
:1034F00057D00E9D0C9C0896371CAE4B1B68DB6AA0
:103500009F424EDA2B8812A803806B88438005F017
:1035100047FF0420235E002B3FDD238811AE33805C
:103520006388301C738005F03BFF0021735E0D9AA9
:103530009A420ADA0A98984207DD0221725E0B98D5
:10354000904202DA0999914222DC04202A5E002A84
:103550001BDD964A1268D2192832127852B2012A1B
:1035600013DD0D9907980A1A9A420EDA0A990A1879
:103570009A420ADD11AB02229B5E0B990A1A9A420B
:1035800003DA09990A189A4205DC0023A38004E0B3
:103590000122089201E001230893013708350E3417
:1035A000ABE7012400250E9F0C9E07940A95814BE2
:1035B000079D1A68013DD06A0995854200DBFDE050
:1035C0003B8812AC23807B88201C638005F0E8FEDA
:1035D0000420335E002B00DCB2E0338811AC238082
:1035E0007388201C638005F0DBFE0F9D002D2CD01E
:1035F000069D0423EB5E002B25DD04203B5E002BA3
:1036000023DD311C0E2201A806F0D0FA069D391DDB
:103610006A882B8812041A430A92EA88AB8812043B
:103620007D881A433B882D040B921D430422684673
:1036300006F0BCFA201C0A990B9A2B1C0124FFF7F8
:10364000DDFE0A9401E001250A9511AA108812AB4B
:1036500084465C881888554B099D1B6852885B1905
:1036600060331979544B1B68002901D15C3300E0A9
:103670005D330425795F1B78002910DD24B211B277
:10368000091BCC1709196140994208DA654600B256
:1036900029B2091AC81709184140994247DB089C0A
:1036A000002C44D013AC237880256D421D43DF20CD
:1036B0000540307B0123402118400D4310239D43DA
:1036C000000107990F232843984319406546014399
:1036D00028B26578001218409D43217011B228432A
:1036E0000912E270B2880340090119436046131CB5
:1036F00012B26170A070FF2A00DDFF23211C099A1D
:103700000C982371FFF718FE201C03F079FE274B5D
:1037100004217A5E1B68002A04DD099C01221B1922
:10372000603303E0099D00225B1960331A710F9C1E
:10373000002C2AD13B88069D2B807B886B8020E063
:1037400004257B5F002B20DD13AD00210C22281CFB
:1037500006F06EFA079A0F231A4040210A432A7096
:103760000120205662888446032020562188644622
:10377000000123400343281C6B70A970EA7003F01A
:103780003FFE33883B8073887B80BB88069D079C07
:10379000AB80B3880134BB80F3880835FB80079485
:1037A000083706950E3602E7F40C0020840300204B
:1037B000000000207C030020F00C0020324F3B680A
:1037C000191C181C8E309831096804789C330C43FE
:1037D000047019602D4B1B68FF335B7A012B4DD0B1
:1037E000D3690F255C1E1D40611C3CD0264B610037
:1037F0001B6808915B181A1C78320020125E6E3329
:10380000002A16DC1B8819B20693079100291EDDD9
:1038100013AE0C22301C002106F00AFA8023069A0F
:1038200007982B433370131CFF2800DDFF233371EF
:103830000AE000215B5E002B09DC13AE301C002186
:103840000C2206F0F5F93570301C03F0D9FD3A680A
:103850000898013C13181A1C6E331B8878321380A9
:10386000013D0F23BFE73B681A1CA0321268191CE8
:10387000A4310A608E3319780A431A7003F0D4FD1C
:103880000A9817B0F0BDC046840300200000002055
:1038900070B5124B051C1B680C1CE6331B78002B03
:1038A0001BD00F4A1368161C191C9C31096800298B
:1038B00005DDA4331B68002B01D105F0B3FA336892
:1038C0001A1CA4321268002A07DD9C331B68002BE7
:1038D00003D1281C211C05F07BFA70BDF40C0020DC
:1038E00084030020F0B591B00E91089003F03CFFE6
:1038F000BD4B01211B680E201A1C6A321278089CED
:1039000091401A1C6B3212786C33891A1A78002590
:103910008B1ADBB20F93B54B09951B680A950B9375
:10392000A8330D93B24B1B68DA6A5043111C23185D
:103930000E3B01390BD3DC88099EA64200DA0994BC
:103940000427DC5F0A9DA542F2DA0A94F0E7089E9C
:10395000013A3018083807920590079F013700D1C7
:10396000B7E0059F023F00203B5E0697002B00D189
:10397000A8E09D4B059E1B6830881A1C5E321578A6
:103980009A4A19691268983214681A1C1432022C67
:1039900001DD343300E0243303F0AFFE041CFCF7F8
:1039A00079FD914B1B681A1C5F321278002A01D1F5
:1039B000642245E02A1C0B9D5D35FF3528780028E0
:1039C0001CD1069F64210026BE5F171C714367430C
:1039D0008C460B995531FF31BC450DDDA6420BDC01
:1039E000844F0E683F6801360E60DA373F78BE427A
:1039F00004D101262E7000E0002008600B985D3095
:103A0000FF300178002915D0069E0B990025755FBF
:103A10005531FF31A5420BDD0D681E1C01350D60CF
:103A20004E363678B54205D1002505700D6001E0AF
:103A3000002008600B995D31FF3109780029B7D06B
:103A40006A49079F0968069DC81928300678002032
:103A5000285E002E05D01D1C4E352D7876B2AE4264
:103A60001ADC642545435443A5420FDB1A1C54322B
:103A70001278099F059E7A4334889211944205DB9F
:103A80009B6D0A9C63439B1198421BDA059D069E21
:103A900000232B8033800CE044331B78564D5C436D
:103AA0006843624390420DDA059F069C00233B80E9
:103AB0002380079A0E3292008A18983153600B685F
:103AC000013B0B60079D059E013D0E3E0795059647
:103AD00043E7464B00221B680E9D98331A60444B07
:103AE0001B68DB6A5C1E0594059EE2000E2474438D
:103AF000AF18089D0C2272432C193F330B9D0D9E6D
:103B00005B00EB18B218AA3307920993059E374D54
:103B1000013600D100E20426A35F334A002B00D116
:103B2000BBE1059E2D681268A9190B1C2833187873
:103B30004E320130C0B21870127840B2961DB042B9
:103B400001DD04321A702823CB56012B05D12388BE
:103B50003B8063887B80E388FB80059EAB19282629
:103B60009E57012E00DC80E1B01C0321FCF716FB00
:103B70000A91022E42D11E4B00203A5E1E6802219D
:103B80007B5E69692D69F0686D10551B36698C463E
:103B9000E917013E6D1836024D40761B7F2E0ADD77
:103BA00065466910591ACE1701388919000271400B
:103BB000401A7F280DDC0021605E801A0222A15E7F
:103BC000C91A04F0E9FC0B2803D93B8823807B88C1
:103BD00063800323013B19D32188079D5A00A95212
:103BE0006188AA18D180F5E7F00C0020840300203A
:103BF0007C030020F40C0020102700000A9E079D83
:103C00003A887300EB181A807A88DA80D34B059EC5
:103C10001B680221655E9B1928331B780020265EF5
:103C20005BB20893032B00DC15E10A9A0798530056
:103C3000C3181988101C0D91043003210693FCF75A
:103C4000ADFA079A4B00D3181888DB88069A0E93B2
:103C5000089B8446D188042B08D10022B85E301A14
:103C6000C317C01858400226BB5F09E0099B00201B
:103C7000185E301AC61780197040099E1423F35E2F
:103C8000ED1AEA17AD18554023884019099D059E85
:103C90002B806388B24AAB820B9DAB192133FF3373
:103CA0001D78002D06D0156872352D88A84208DCD5
:103CB000002505E0156874352D88A84201DB012533
:103CC0001D701B78002B2BD112688021131C7032C1
:103CD00012886E331B8800924A0003F0FDFC069D9B
:103CE000061C0020215E0020285E0B1ADD175A19E1
:103CF000069B6A4094460222A55E06229A5EAD1A91
:103D0000EA17AD1855406544321C2B1C05F0BEFB6C
:103D1000069B20800222A15E0620185E321C78E0FD
:103D20000D9E6046B5B22B1A1BB2DA0FD3180E9A4D
:103D300089B25B100D938B1A1BB2DE0FF3180020B3
:103D4000265E5B1008960220265E0E930C960D9E52
:103D5000AB19089D1BB2EB1ADE170E9D9B19734021
:103D600049190C9E09B2711AC817091841405B180D
:103D70000025802B01DD1D1C803D0A9803210530A4
:103D8000FCF70CFA079E764B49001B6871180391EB
:103D900006991A1C0020085E6B320F9916780132C2
:103DA0001278414303980A920022825E0898724377
:103DB00089180A9A424388181A1C6A32127806999E
:103DC000104104900620095E0F986D3348438446E5
:103DD00003981B780621415E0C984E430A9966446D
:103DE000414376180E9916415943114176180D99A1
:103DF0004B4313411A1C049B089998188022D20047
:103E00002B1C05F043FB80222080D2000220215E83
:103E1000301C2B1C05F03AFB514D60802B680421AF
:103E2000785E0422A15E523300269A5F431ADE17A1
:103E30009B19734005F02AFB2B68A080F888E18865
:103E4000523300255A5F431ADE179B19734005F061
:103E50001DFBE08009E000203B5EF618761026800E
:103E600002217B5EED186D1065803C4B3C491A6861
:103E7000059D0968531928204E3118560978884243
:103E800003DC01225242A28003E098321168013122
:103E90001160303300229A7032E02E680599126862
:103EA00070180692021C283200269657B446069EC9
:103EB0004E363678B4451CDD0426B95F00291FD084
:103EC000303086780136F6B28670069976B24F3178
:103ED00009788E4213DC3B8823807B886380BB8813
:103EE000A380FB88E3802B6898331A6801321A603C
:103EF00006E00B9D059E1370AA192132FF32137044
:103F0000059D079E013D0595099D0C3E023D083F1C
:103F10000E3C07960995F9E52B680022A0331A603C
:103F2000104B1B68DC69013C611C00D197E02868DC
:103F300062008218161C6E36378805970599084F5F
:103F4000002918D07823995E8C4605990BB26146FA
:103F5000002909DC39684C3108E0C04684030020A0
:103F6000F00C00207C03002039684D3109788B4229
:103F700001DA0023338031880319079300293FD0E9
:103F800080330593987884467F2804D001239C448D
:103F9000059863468370079B80339B785BB2022B46
:103FA00013DD78320023D05E3A6809B2944652227B
:103FB0009444634600229B5E0593431ADA179B18CC
:103FC0005340059A05F062FA30802B6802201A19D6
:103FD000111C80310856396850310978884207DC55
:103FE000211C343149005B1801214942D98003E08A
:103FF000A03319680131196080320023D37192E730
:104000003F68079B069780330227DF5705975027A5
:10401000BC46069FBC4467463F78BC46059F674543
:1040200018DD78321288002A00D17CE7DF79BC469F
:104030000127BC446746FFB2DF717FB2BC46069FD2
:1040400051373F78BC4508DC3280A030036801332B
:10405000036068E7286803198033997063E711B03B
:10406000F0BDC04638B5041C0D1C00F0B5FB03F0D4
:104070004DF9012803D0201C291CFFF733FC38BD63
:10408000F7B50C1C151C061CFCF7F2F9FCF7FCF943
:1040900000F080FE2F4F30493B680220DB692A1C6C
:1040A0004B700423CB705A230B7103F033FA231C9B
:1040B0002A3300221A703B68DA69284B1968284BAA
:1040C0001B680193274B18688446013A38D30B7854
:1040D0009700E859002B07D0019B9B180093F933F8
:1040E000FF331B7858438011089BDF593B0C1B1A88
:1040F00011D4487B834202DB0120674638710F20D0
:104100000856834212DB2768181A38182060606945
:10411000013060610AE011200856834206DCA7687E
:10412000181A3818A060A0690130A06150003352FD
:10413000201C2A300778BB4200DA3B1C0370C4E71E
:10414000064B2A341B6822781B7A00209A42404191
:10415000C0B2FEBD7C03002058010020E40C00200A
:10416000E80C002080030020F0B591B00C1C0792F1
:104170000F90FCF77DF9FCF787F9854D85492B6891
:104180001E7A08965B89844E099333681F685868C5
:104190009A680423CB7051238A700B710132079BFC
:1041A000920048709A1802200F7003F0B3F90022B1
:1041B000A31DDA770233DA777F27631DDF77316853
:1041C000E31DDF7775484B680068013BDBB20C905C
:1041D00073480B930B682E680068013B5BB2B446D2
:1041E0000D9005920392002B00DA97E00B9F580088
:1041F0007AB20690002A00DA8EE08E685D1C754364
:104200000135AD18079FA80000956546C0592F7865
:104210004E68002F09D0351C5D430C9FBF187F5D91
:104220000D9D7843AD68684300135E43169F961951
:10423000B600F6590F9F360C301A009E7500E853F1
:104240006646002854DB0F257557A84212DB276805
:10425000451B7D1925606569102701356561F75794
:10426000F67B656876B2B84201DC861B00E0BE1BB7
:10427000AE196660E568A84204DDD6B2DFB20E96DC
:104280000A97E0606646357BA8421BDB251C083593
:104290001F26AE57964200DAEA77E51D1F26AE5775
:1042A000964200DDEA77A51D1F26AE579E4200DA32
:1042B000EB77651D1F26AE579E4200DDEB77059F0D
:1042C0000137059785B2189F56000195BD5B019F88
:1042D0007D192F1C189DAF53179D069EAF5B019E45
:1042E000F519179F069EBD53039F3F18039711E0D2
:1042F00011257557A84206DCA768451B7D19A560E6
:10430000A5690135A5612569A84200DA2061039EEF
:10431000361A0396013A6DE7013B64E71E4B03989A
:104320001B6801259969FBF7E3FE1E497C235B426C
:10433000221CCB70E06176231C32281C0B714D705F
:1043400003F0E8F8059FA21D27621F21631D515647
:104350001F229A56124B1B68914201DB1D7101E02E
:1043600000221A710E9D231C0A9E28331D705E7058
:10437000E768089D0120AF4206DA099E236932B240
:10438000D80FD1179A424841C0B211B0F0BDC04613
:10439000E40C0020900400207C030020E80C0020A6
:1043A000800300205801002007B5104B2A301B68FD
:1043B0000278987C0968424392098A4200DA0A1C12
:1043C000997B4A43921101921B7B9A4200DA019336
:1043D000074901234B707C235B42CB7006201F23CF
:1043E00001AA0B7103F096F801980EBDE40C0020B1
:1043F00058010020F0B591B0089316AB1B78BD4C66
:104400000F9300234B72CB720D907F2320680B72A9
:104410008B7206910A920323C3562027FF1A0223A8
:10442000C35608997F00FF1A49687F10FFB20591B3
:1044300007970422815E0623C25E0823C356407A92
:1044400040B20090059803F047F9AB4B80021D681D
:104450002968FBF74DFE24686A682378002B00D199
:104460006EE0189D911CEB8849006B802B892E1CF7
:104470002B800B1FEB181D887552991E0988D98057
:104480006178002903D0079D6FB27F0039E0023BBD
:10449000013A39D35E88DD88032161567519079E7C
:1044A0004D431F8871B21E89BE194E430221AD19BA
:1044B00061569E8871436918891141430914198115
:1044C000E5E7032565575988DE886D00AC460D1C6D
:1044D000B14200D2351CADB266466E431D89B4466A
:1044E0001E88311CAE4200D2291C0225655789B2B4
:1044F0009E887943754361444D19AD1145432D1490
:104500001D81023B013ADCD2089F0B207F68049793
:1045100020560422A15E0623E25E0A23E3560090A1
:10452000381C03F0D9F8744B80021C686168FBF7F3
:10453000DFFD704B21681B681A78002A0CD164E0FB
:10454000531C189F5B00FB18013ADDD31988023B0E
:1045500041430914D980F7E7179CE288251C628043
:104560002289261C22808C1C6400221FAA18158810
:104570003553941E2488D4805C78002C03D0079C8B
:1045800067B27F0039E0023A013939D35688D588BD
:1045900003241C577519079E6543178874B2168942
:1045A000BE1966430224AD191C57968874432C1912
:1045B000A411444324141481E5E703255D5754886E
:1045C000D6886D00AC46251CB44200D2351CADB275
:1045D00064466C4316881589A446341CAE4200D24A
:1045E0002C1C02255D57A4B296887C437543644415
:1045F0006519AD1145432D141581023A0139DCD2FC
:104600001A7B9446002A23D00BE04A1C179D5200C7
:10461000AA180139F4D31488023A44432414D480EC
:10462000F7E7089E0E27D95F7068002294468842FB
:104630000EDD10241A5F9B7C01255BB2009363465C
:1046400003F04AF810231B1A9B000C900E93AC4603
:10465000294B00261868089601684B1E5B000793DB
:104660004F1E099700D298E04368013B00D28FE0CB
:1046700067468468002F41D00A1C6243D6180A9FFF
:1046800001367600BD5B0B922AB2D243D2172A4084
:10469000099D5F1C0235654302967D190A9E6D00D7
:1046A000AE5F12B20396964200DA03920B9E341B61
:1046B0003C190A9F6400E45F944200DA141C039ED4
:1046C0000A9F3519029C3E190224375F141EBC4212
:1046D00000DA3C1C023E2D190027F45F161EA6428C
:1046E00000DA261CAD190C9C0E9E65437243AA1875
:1046F000921109E0F80C00207C0300204C431C19A7
:1047000001340A9F6400E25F189D5C002C19248923
:10471000179E079F121BF41924895D10121B099C18
:104720001E192A4C344004D50226013C76423443FB
:104730000134079E0F9F3419BA4218DD069F0B26DD
:10474000BE57AE4200DAFD72069F0A26BE57AE4241
:1047500000DDBD72069F0926BE57A64200DA7C72B4
:10476000069F0826BE57A64203DD3C7201E0002AE0
:1047700004DD089E964202DA089200E000224769B2
:1047800001347C432C1901340D9DA40062516CE767
:10479000079E0999023E079662E70899069C4269BE
:1047A00021600B490D9F8A707C230132C568066920
:1047B0005B429200CB70BA18832305200D704E70B7
:1047C0000B7102F0A7FE11B0F0BDC04601000080E1
:1047D0009004002070470000F0B58BB0041CFBF77C
:1047E00059FE03F065FC03F085FC3A4B0E201B6874
:1047F000D96A8C4601394843090120180091634663
:10480000013B9C4664D30423C25E334B002A58D03C
:10481000009C1B191A68022A01DC01321A60DA882E
:104820001A819A89DA819A88DA805A899A8102886B
:104830009A8042885A811A68032A44D1013A0ED3D9
:1048400055005D1994000427EE5F211C10246418A4
:104850006F46E6510A242E5F07AD4E51EEE7002366
:104860001C1C01340294002510266F46F618F659D8
:1048700004AFDA1952195168039601918E4205DD91
:104880001026F6186F46F1510399516007AA9E58F9
:1048900001969E187619776801990397B94201DD50
:1048A0009F507160029E0435012E02D102270297AB
:1048B000DAE70433022CD4D1059B0380536843808C
:1048C00001E000995A50009A0E38103A009296E78B
:1048D0000BB0F0BD7C030020A4030020F0B5A9B00C
:1048E0000FAD059000216422281C05F0A1F906A84F
:1048F0000021242205F09CF900246300E85801936C
:1049000028236343304F02903A1C3232D21804926B
:10491000002605980499835F885FFA21584389002F
:10492000FBF7E6FB029A02361018502E01D00290D7
:10493000EFE73B5F019AC0180234A850322CDCD15B
:104940000023E958002901DA0022EA500433642BDD
:10495000F7D10024670018206946C0194058192172
:1049600061431A4B01901A1C14328A1802920026D5
:1049700002987200835FA858FA2189005843FBF718
:10498000B7FB019902360818322E01D00190EFE7EB
:104990000E4B18370233E35E0234C0186B46F850F2
:1049A000122CD7D1012252420023990006A8415867
:1049B0008A4202DADAB203920A1C0133092BF4D1DB
:1049C000039829B0F0BDC046CE9C0000CEA40000E4
:1049D000F0B585B00192021C5232041C0D1C861CDD
:1049E0000292B31E0422A85E03930022AB5E184F0E
:1049F000C01A01997843FBF77BFB039B0199188050
:104A00000222AB5E0622A85E0435C01A7843FBF78B
:104A10006FFB029B308004369E42E2D100230D4A98
:104A2000E15A56329A5A8A1AE2520233502BF6D180
:104A30000025635FFA2080005843074B2633E95E68
:104A4000FBF756FB60530235502DF2D105B0F0BD97
:104A5000A08601004EA60000CEA6000030B50022C0
:104A60000C7D131C8D5CA54201D00133DBB20132F9
:104A7000142AF7D1022B14D8012303700B7D0621D1
:104A8000181C884301280CD1032B0CD003D8101C10
:104A9000012B09D005E01620052B05D01720072B88
:104AA00002D0002000E0152030BD000013B51C4CE2
:104AB000019001A9201C042205F078F8A023DB0551
:104AC000597960780F221040914301435971607801
:104AD0005979000900011140014359719979A07871
:104AE0009143104001439971A1789879090909010E
:104AF00002400A439A71E17858680A4A890789098D
:104B000002400A435A60E17858684907064AC90FCB
:104B1000890602400A435A6022781A7113BDC046C2
:104B2000C40C0020FFFFFFFCFFFFFFFB1B4A032319
:104B3000D178184099430B1C034330B5D370A023A0
:104B4000DB055C7955780F210D408C432C435C715B
:104B500055785C792D092D010C402C435C719C79B2
:104B600095788C430D402C439C7194789D79240951
:104B700029402401214399715C68010608482040BE
:104B800008435860D0785C6840070649C00F80062B
:104B900021400143596012781A7130BDC40C0020C5
:104BA000FFFFFFFCFFFFFFFB1B4A01231840D378E8
:104BB00030B504248100A3430B43D370A023DB054D
:104BC0005C7955780F210D408C432C435C715578EE
:104BD0005C792D092D010C402C435C719C799578F2
:104BE0008C430D402C439C7194789D7924092401B9
:104BF000294021439971D4785D680849A407294068
:104C0000A409214359605C68810605482040084397
:104C1000586012781A7130BDC40C0020FFFFFFFCF1
:104C2000FFFFFFFB1A4A0F21937808408B43034391
:104C300030B59370A023DB055C7955788C430D402B
:104C40002C435C7155785C792D092D010C402C4367
:104C50005C719C798C432043987190789C79000911
:104C60000001214001439971D0785C6809498007AF
:104C70008009214001435960D0785C6840070649AB
:104C8000C00F800621400143596012781A7130BD6F
:104C9000C40C0020FFFFFFFCFFFFFFFB1A4A0F219F
:104CA0009378084000010B40034330B59370A02374
:104CB000DB055C7955788C430D402C435C7155784D
:104CC0005C792D092D010C402C435C719C79957801
:104CD0008C430D402C439C719C7921400843987172
:104CE000D0785C68094980078009214001435960F8
:104CF000D0785C6840070649C00F80062140014318
:104D0000596012781A7130BDC40C0020FFFFFFFCFF
:104D1000FFFFFFFB194AA02330B5DB0510705C795B
:104D200055780F210D408C432C435C7155785C798C
:104D30002D092D010C402C435C719C7995788C4396
:104D40000D402C439C7194789D79240924012940BD
:104D500021439971D4785D680949A4072940A409C1
:104D600021435960D1785C684907064AC90F890612
:104D700022400A435A60187130BDC046C40C00205E
:104D8000FFFFFFFCFFFFFFFB014B18607047C046B1
:104D9000D00C0020014B18687047C046D00C002092
:104DA000014B18607047C046CC0C0020014B1868BE
:104DB0007047C046CC0C0020014B18607047C046BD
:104DC000C80C0020014B18687047C046C80C002072
:104DD000014B18687047C04650010020F7B52F4BB3
:104DE0000021081C1A78013352B28018DA7B52B2C3
:104DF00089182B4A9342F5D12A4B00221B785BB2CB
:104E000098420BD1284B1B785BB2994206D12749B7
:104E1000F523101C0B7102F07DFB012200231F48BB
:104E20001C1C19180D7807200540A0211034C90555
:104E300064005543665A05408643301C28431C4D88
:104E4000605258190778151C0F20054007406F4322
:104E50000740FF000097665A7827BE43009F3E43F5
:104E6000144F6652DE193678064075432840665A5C
:104E7000C501114830402843104D6052581905783B
:104E80001F20054055432840655AC0026D056D0D31
:104E9000284301336052062BC1D1F7BD80000200C8
:104EA0008C0002008F0002009F0002009704002087
:104EB00086000200900002007FF8FFFF96000200CB
:104EC00001207047F7B5184B00201A7852B25632BD
:104ED00028D11B789C46154B1878154B40B21F788B
:104EE000144B7FB21E78144B76B21D78134B6DB203
:104EF0001C78134B64B21978124B49B21A78124BD2
:104F000052B21B78019363465BB29C466044C01961
:104F100080194019001940188018019A53B2C01A1C
:104F200043425841C0B2FEBD500002005200020090
:104F30005100020053000200540002005800020019
:104F4000590002005A0002005F0002008023DB02C9
:104F50000022188059809A80C046024B188880B27F
:104F60007047C04606000400164BC02292009858B5
:104F70001549014099509958FF2081434020014331
:104F800099509858114901408020000401439950DC
:104F9000985880210002000A090601439950022214
:104FA0001A6001221A60082104221A6019600F2178
:104FB0001960FC3300215960054B19690A431A61D5
:104FC0007047C04600E100E0FF00FFFFFFFF00FF69
:104FD00000ED00E013B5094A042413780021DBB288
:104FE0001C4301910198F421FF31884205DC1370C4
:104FF000C046147001990131F3E713BD0D00005054
:1050000030B5114B03211A68A02382321478DB05D6
:105010009D8BA4080D480C402840A402204398838F
:1050200010789C8B00090140080309492140014385
:1050300099831178988B8907064AC90F4902024063
:105040000A439A8330BDC046CC0C0020FFF3FFFF1B
:10505000FFCFFFFFFFFDFFFF13B500221F2301302D
:105060000092019218406A46C9B210704A1C02317F
:105070001A40A0240B406846E4059B004270C370B0
:10508000201C69460822103004F090FD2369C022DC
:105090009343236113BD00000002064B000A013850
:1050A000002258609A6005221A60C0461A68D1032F
:1050B000FCD5704710E000E0F0B5394F85B03C6892
:1050C00003AD7D34211C281C042204F06FFD63789D
:1050D00001221B0901932B780421134302229343DD
:1050E0008B43182293437F2213402B70019B0F2682
:1050F0001A016B78A478334013436B70AB782407A4
:10510000240FB343102223439343AB700399A0258C
:10511000ED05A960FFF75EFF3B6818217D331A7823
:1051200018231A40AB688B431343AB60AB6804226F
:105130001343AB60AB6880221343AB60FFF7C2FE42
:1051400000280CD00D2C01D1164B06E00B2C01D100
:10515000154B02E0062C02D1144B1C783440AB688E
:10516000134F144E3B40AB60AB6813483340AB6009
:10517000FFF792FFAA6880235B031343AB60AB6821
:1051800024041E402643AE600C48FFF785FF0199BA
:10519000AA680B0317401F43AF6005B0F0BDC046BF
:1051A000CC0C00205A0002005900020058000200F6
:1051B000FF0FFFFFFFFFF0FFFF0F0000FF6F00007A
:1051C00010B50A48A0230068DB05D969943000684F
:1051D0000322890801248440114021430A409100A0
:1051E0009A8B0C2082430A439A8310BD5001002001
:1051F00010B50A48A0230068DB05D969943000681F
:1052000003228908012484401140A1430A409100EF
:105210009A8B0C2082430A439A8310BD50010020D0
:10522000A023DB05D869054B00071B68800F94336A
:105230001B681841012318407047C04650010020E8
:10524000044B82B0019001AA188092789A7002B043
:105250007047C0461800005007B500F0CBFC074B64
:10526000019001AA188092789A70054B00221A705A
:10527000A0230122DB05DA7607BDC04618000050E6
:10528000B00C0020034B00221A70A0230122DB0582
:10529000DA767047B00C002008B572B6064B1B5C7E
:1052A000002B03D1C04662B630BFF6E762B60020DD
:1052B000FFF73CFC08BDC046B00C002008B572B634
:1052C000054B1B5C002B02D1C04662B6F7E762B605
:1052D0000020FFF72BFC08BDB00C0020A023DB054D
:1052E000DA680121120ED8689143034A0906024088
:1052F0000A43DA607047C046FFFFFFFE704708B5FB
:10530000A0230120DB055870FFF7C6FFFFF7E6FF7B
:1053100008BD000010B5041CFFF7D4FD022C06D018
:10532000052C02D0002C04D101E0002401E0FBF7A1
:10533000B1F80C4B64001B687F221C19231C5933E5
:105340001878A023DB05D968104091430143D96048
:105350005A342178D8680A401102034A02400A43AD
:10536000DA6010BD50010020FF80FFFF214BF7B530
:105370001A68214B1B68DB7C5B069B0E0193517EF8
:1053800000238D005519581E5B18002B26D053188A
:105390001B189B7E8024D3185E78A023DB05DF6872
:1053A000E4033C43DC60019CB60624040094DF68FF
:1053B000B60EBC46114F64462740009C2743DF6071
:1053C000C0460F4F7600F619B68884002C19E667A0
:1053D000DE680C4C3440DC60031CD4E7537E0A4981
:1053E0007C324B700423CB700F20B0230B7102F082
:1053F00091F8F7BD50010020CC0C0020FFFFC0FF4A
:1054000040000050FFFFBFFF5801002008B5FFF724
:10541000ADFF074B07491A680F20537E7C324B7053
:105420000423CB70B0230B7102F074F808BDC046A2
:105430005001002058010020044B00225A70A02384
:10544000DB055A7001221A707047C046B00C00206C
:1054500008B50120FFF76AFB034B00229A70A023D6
:105460000122DB059A7008BDB00C0020014B1B68BF
:10547000586F704750010020014B1B6858677047F8
:105480005001002030B5A023DB051D79197918796A
:105490001A791C792B077F25A843DB0F801018434E
:1054A00056232340184301230B40DB0018432023DD
:1054B00013409B00184330BD38B5051CFFF7E2FFD1
:1054C000041CAC4207D001DA013400E0013CE0B238
:1054D000FFF720FCF5E738BD08B50120FFF764FBB6
:1054E0000020FFF79FFB0020FFF7D8FBA023DB0580
:1054F0009A6801218A439A609A6880218A439A6057
:105500009968024A0A409A6008BDC046FFFFEFFF53
:1055100010B5154C23687C3318784007C00FFFF78F
:1055200043FB23687B3318780007000FFFF77AFBF3
:1055300023687B3318780009FFF7B0FBA023DB0555
:105540009A6801210A439A609A6880210A439A6006
:105550009968802252030A43FA209A60800000F082
:105560006FFBFFF799FD10BDCC0C002008B50020A3
:10557000FFF792FE08BD0000034B1B689878C00639
:10558000800E01307047C046CC0C0020024B1B68D7
:1055900058784007400F7047CC0C0020034B1B6825
:1055A00043331878C006800E01307047CC0C0020C1
:1055B000034B1B68423318784007400F7047C046C2
:1055C000CC0C002000487047001000500048704785
:1055D000002000500048704700400050054B1A68FA
:1055E000054B90681B6840331B785843034B800081
:1055F000C01870477C030020500100200440005078
:10560000054B1A68054B90681B684C331B78584350
:10561000034B8000C01870477C030020500100201D
:1056200004400050F7B52F4B04221C682378191C46
:10563000914355D05BB2022B02D1FAF72BFF4FE01A
:10564000032B4DD0012B15D1FFF7DAFF264B00229B
:105650001B68DB799D004519511ED218002A3FD0E6
:10566000E218521820321278920016588A00AE5072
:105670000A1CF1E7052B33D11B4B1C4A1C6816682A
:10568000231C6B331D78237A581E0FD3E279013A1D
:105690000AD3B768511C5F43C919154F8900C9194E
:1056A0000F68EF400F60F2E7031CEDE7FFF796FF8E
:1056B000237B002201339C46614601398C460FD37F
:1056C000E17A9600019186190023019F9F4205D03F
:1056D0009F00F1590133E940F151F6E7D219EBE7A8
:1056E000F7BDC04650010020D00C00207C030020F4
:1056F0000040005010B5A023DB0501245C7001F0D0
:1057000049FFFFF7BFFE201CFFF7C6FD01F042FF77
:10571000FFF7B8FEFFF7E2FDFFF784FF10BD0000C2
:1057200070B5041C104E114D11D10120FFF7F2FD90
:10573000336801221A70A023DB056C705C701A704C
:10574000FFF7D8FFFFF7CAFDFFF760FE0224201C19
:10575000FFF7E0FD336800221C70A023DB056A70B0
:105760005A7001221A7070BD50010020B00C002048
:1057700008B5FFF7D5FFFFF7BDFF08BD054B1A6859
:10578000054B90681B6850331B785843034B8000CF
:10579000C01870477C0300205001002004400050D6
:1057A000054B1A68054B90681B6854331B785843A7
:1057B000034B8000C01870477C030020500100207C
:1057C00004400050054B1A68054B90681B68443331
:1057D0001B785843034B8000C01870477C0300209F
:1057E0005001002004400050A02380B2DB05D88285
:1057F0009882704773B5FFF745FE1C4C23687933D8
:1058000058781A78000210439A78DB781204104313
:105810001B061843FFF74AF9236879331C78FFF712
:1058200051FB134D002813D0124B134A1B781278EA
:105830002E6852B25BB20092201CEF22102101F0C0
:105840004BFF2B68B0679B6FE4180C4B1A781B78E2
:10585000002C01DA002402E0FF2C00DDFF242B687D
:10586000E0B25C67FFF728FE73BDC046CC0C002099
:1058700050010020510002005200020054000200BA
:1058800008B5002801D0012801D101F09BF9FFF7EC
:10589000B1FFFFF711FCFFF7B3FB08BDF7B5041C20
:1058A00002F006FC124B1A6800231069411C01919A
:1058B000019DD6689D420CDB576901367E439900F5
:1058C0008C469E1900216546B60061510133315165
:1058D000EEE701239E420ADB556900215D43AF00DC
:1058E0002D180135AD00395101332951F2E7F7BDCB
:1058F0007C030020044B054900221A6059609A601D
:1059000005221A607047C04610E000E0FFFFFF006C
:1059100038B5A023DB05DC790C4B6407E40F1B686A
:105920000134A040041C9D6FFFF7ACFD32212D1AFD
:10593000FF35FF316943064B0648C918FAF7D8FB13
:10594000C1B2201CFAF7D4FB38BDC046500100207C
:105950008E64000040420F00014B00221A60704725
:1059600010E000E013B50B4C0B48A368C01A01937C
:10597000FFF7CEFF094901234B7004230190CB7040
:1059800000206F2301AA0B7101F0C4FD00230198D0
:10599000236016BD10E000E0FFFFFF00580100206B
:1059A00010B5041CFFF7A6FF201CFFF7B9FEA023CB
:1059B000DB0501205870FFF781FCFFF78FFCFFF734
:1059C00031FEFFF7CFFF10BDF7B5234800F038F9DF
:1059D000FFF762FB214F0025214E224CB7421FD218
:1059E0008036F31B2026832B00DC9E10012366707B
:1059F00000203A1C211CB610E370207101F08AFDD2
:105A00003B1C321C013A08D3002D04D116491868FA
:105A1000884200D01D1C0433F4E7B600BF19DBE751
:105A20000E4904226B1A01270193E270A723211C5F
:105A300001AA002067702371843601F06BFD0423F6
:105A4000751BE3700020A823211C01AA0195677033
:105A5000237101F05FFDF7BD801A0600000D0020E4
:105A60008027002058010020CDCDCDCD014B1B68F3
:105A7000587E70475001002070B5051CFFF7C0FD2F
:105A8000094B1C68637E9A00AD180022511ED21883
:105A9000002A08D0E2185218927E920016588A0006
:105AA000AE500A1CF2E770BD5001002030B50A4B21
:105AB0001B685A7E94001C195300C0180023013340
:105AC000D11A013106D09D00651B5900ED6F494286
:105AD0004552F4E730BDC04650010020F8B50C1C1B
